{
  "_format": "hh-sol-artifact-1",
  "contractName": "Escrow",
  "sourceName": "src/contracts/Escrow.sol",
  "abi": [
    {
      "inputs": [
        {
          "internalType": "address",
          "name": "_arbiter",
          "type": "address"
        },
        {
          "internalType": "address payable",
          "name": "_beneficiary",
          "type": "address"
        }
      ],
      "stateMutability": "payable",
      "type": "constructor"
    },
    {
      "anonymous": false,
      "inputs": [
        {
          "indexed": false,
          "internalType": "uint256",
          "name": "",
          "type": "uint256"
        }
      ],
      "name": "Approved",
      "type": "event"
    },
    {
      "inputs": [],
      "name": "approve",
      "outputs": [],
      "stateMutability": "nonpayable",
      "type": "function"
    },
    {
      "inputs": [],
      "name": "arbiter",
      "outputs": [
        {
          "internalType": "address",
          "name": "",
          "type": "address"
        }
      ],
      "stateMutability": "view",
      "type": "function"
    },
    {
      "inputs": [],
      "name": "beneficiary",
      "outputs": [
        {
          "internalType": "address payable",
          "name": "",
          "type": "address"
        }
      ],
      "stateMutability": "view",
      "type": "function"
    },
    {
      "inputs": [],
      "name": "depositor",
      "outputs": [
        {
          "internalType": "address",
          "name": "",
          "type": "address"
        }
      ],
      "stateMutability": "view",
      "type": "function"
    },
    {
      "inputs": [],
      "name": "isApproved",
      "outputs": [
        {
          "internalType": "bool",
          "name": "",
          "type": "bool"
        }
      ],
      "stateMutability": "view",
      "type": "function"
    }
  ],
  "bytecode": "0x608060405260405161058938038061058983398181016040528101906100259190610118565b816000806101000a81548173ffffffffffffffffffffffffffffffffffffffff021916908373ffffffffffffffffffffffffffffffffffffffff16021790555080600160006101000a81548173ffffffffffffffffffffffffffffffffffffffff021916908373ffffffffffffffffffffffffffffffffffffffff16021790555033600260006101000a81548173ffffffffffffffffffffffffffffffffffffffff021916908373ffffffffffffffffffffffffffffffffffffffff16021790555050506101c6565b6000815190506100fd81610198565b92915050565b600081519050610112816101af565b92915050565b6000806040838503121561012b57600080fd5b6000610139858286016100ee565b925050602061014a85828601610103565b9150509250929050565b600061015f82610178565b9050919050565b600061017182610178565b9050919050565b600073ffffffffffffffffffffffffffffffffffffffff82169050919050565b6101a181610154565b81146101ac57600080fd5b50565b6101b881610166565b81146101c357600080fd5b50565b6103b4806101d56000396000f3fe608060405234801561001057600080fd5b50600436106100575760003560e01c806312424e3f1461005c57806328f371aa1461006657806338af3eed14610084578063c7c4ff46146100a2578063fe25e00a146100c0575b600080fd5b6100646100de565b005b61006e6101f9565b60405161007b91906102ee565b60405180910390f35b61008c61020c565b60405161009991906102d3565b60405180910390f35b6100aa610232565b6040516100b791906102b8565b60405180910390f35b6100c8610258565b6040516100d591906102b8565b60405180910390f35b60008054906101000a900473ffffffffffffffffffffffffffffffffffffffff1673ffffffffffffffffffffffffffffffffffffffff163373ffffffffffffffffffffffffffffffffffffffff161461013657600080fd5b6000479050600160009054906101000a900473ffffffffffffffffffffffffffffffffffffffff1673ffffffffffffffffffffffffffffffffffffffff166108fc829081150290604051600060405180830381858888f193505050501580156101a3573d6000803e3d6000fd5b507f3ad93af63cb7967b23e4fb500b7d7d28b07516325dcf341f88bebf959d82c1cb816040516101d39190610309565b60405180910390a16001600260146101000a81548160ff02191690831515021790555050565b600260149054906101000a900460ff1681565b600160009054906101000a900473ffffffffffffffffffffffffffffffffffffffff1681565b600260009054906101000a900473ffffffffffffffffffffffffffffffffffffffff1681565b60008054906101000a900473ffffffffffffffffffffffffffffffffffffffff1681565b61028581610336565b82525050565b61029481610324565b82525050565b6102a381610348565b82525050565b6102b281610374565b82525050565b60006020820190506102cd600083018461028b565b92915050565b60006020820190506102e8600083018461027c565b92915050565b6000602082019050610303600083018461029a565b92915050565b600060208201905061031e60008301846102a9565b92915050565b600061032f82610354565b9050919050565b600061034182610354565b9050919050565b60008115159050919050565b600073ffffffffffffffffffffffffffffffffffffffff82169050919050565b600081905091905056fea264697066735822122017cef80407872a17276a7ab1fb1364c8357eb4be89ed454e7da119c8d667828c64736f6c63430008040033",
  "linkReferences": {},
  "deployedLinkReferences": {}
}